{
  "contractName": "TGPS",
  "abi": [
    {
      "inputs": [
        {
          "internalType": "int256",
          "name": "latitude",
          "type": "int256"
        },
        {
          "internalType": "int256",
          "name": "longitude",
          "type": "int256"
        }
      ],
      "name": "set",
      "outputs": [],
      "stateMutability": "nonpayable",
      "type": "function"
    },
    {
      "inputs": [],
      "name": "get",
      "outputs": [
        {
          "internalType": "int256",
          "name": "latitude",
          "type": "int256"
        },
        {
          "internalType": "int256",
          "name": "longitude",
          "type": "int256"
        }
      ],
      "stateMutability": "view",
      "type": "function",
      "constant": true
    }
  ],
  "bytecode": "0x608060405234801561001057600080fd5b50610182806100206000396000f3fe608060405234801561001057600080fd5b50600436106100365760003560e01c806304c402f41461003b5780636d4ce63c14610057575b600080fd5b610055600480360381019061005091906100d4565b610076565b005b61005f610088565b60405161006d929190610123565b60405180910390f35b81600081905550806001819055505050565b600080600054600154915091509091565b600080fd5b6000819050919050565b6100b18161009e565b81146100bc57600080fd5b50565b6000813590506100ce816100a8565b92915050565b600080604083850312156100eb576100ea610099565b5b60006100f9858286016100bf565b925050602061010a858286016100bf565b9150509250929050565b61011d8161009e565b82525050565b60006040820190506101386000830185610114565b6101456020830184610114565b939250505056fea2646970667358221220e6c70aa4394faf2d9f5a2a0c1f8a684fa9231324d266b25e246ee0f11a8a5a2564736f6c63430008130033",
  "immutableReferences": {},
  "source": "pragma solidity >=0.5.8;\n\ncontract TGPS {\n    int256 private storedLatitude;\n    int256 private storedLongitude;\n\n    function set(int256 latitude, int256 longitude) public {\n        storedLatitude = latitude;\n        storedLongitude = longitude;\n    }\n\n    function get() public view returns (int256 latitude, int256 longitude) {\n        return (storedLatitude, storedLongitude);\n    }\n}\n",
  "sourcePath": "/home/araki/tokenization-ethtokyo/tokenized-gps/tgps/contracts/TGPS.sol",
  "compiler": {
    "name": "solc",
    "version": "0.8.19+commit.7dd6d404.Emscripten.clang"
  },
  "schemaVersion": "3.4.13",
  "updatedAt": "2023-04-14T15:23:06.948Z",
  "networkType": "ethereum",
  "devdoc": {
    "kind": "dev",
    "methods": {},
    "version": 1
  },
  "userdoc": {
    "kind": "user",
    "methods": {},
    "version": 1
  }
}