{
  "contractName": "GPSStorage",
  "abi": [
    {
      "constant": false,
      "inputs": [
        {
          "internalType": "int256",
          "name": "latitude",
          "type": "int256"
        },
        {
          "internalType": "int256",
          "name": "longitude",
          "type": "int256"
        }
      ],
      "name": "set",
      "outputs": [],
      "payable": false,
      "stateMutability": "nonpayable",
      "type": "function"
    },
    {
      "constant": true,
      "inputs": [],
      "name": "get",
      "outputs": [
        {
          "internalType": "int256",
          "name": "latitude",
          "type": "int256"
        },
        {
          "internalType": "int256",
          "name": "longitude",
          "type": "int256"
        }
      ],
      "payable": false,
      "stateMutability": "view",
      "type": "function"
    }
  ],
  "bytecode": "0x608060405234801561001057600080fd5b5060e78061001f6000396000f3fe6080604052348015600f57600080fd5b506004361060325760003560e01c806304c402f41460375780636d4ce63c14606c575b600080fd5b606a60048036036040811015604b57600080fd5b810190808035906020019092919080359060200190929190505050608f565b005b607260a1565b604051808381526020018281526020019250505060405180910390f35b81600081905550806001819055505050565b60008060005460015491509150909156fea265627a7a723158208904c69485d1a66e2c350060ca22fd54ad7103bc9bc94b2d086c35c43af0e16364736f6c63430005100032",
  "source": "pragma solidity >=0.5.8;\n\ncontract GPSStorage {\n    int256 private storedLatitude;\n    int256 private storedLongitude;\n\n    function set(int256 latitude, int256 longitude) public {\n        storedLatitude = latitude;\n        storedLongitude = longitude;\n    }\n\n    function get() public view returns (int256 latitude, int256 longitude) {\n        return (storedLatitude, storedLongitude);\n    }\n}\n",
  "sourcePath": "/home/araki/tokenization-ethtokyo/tGPSv0.1/storage-contract/contracts/GPSStorage.sol",
  "compiler": {
    "name": "solc",
    "version": "0.5.16+commit.9c3226ce.Emscripten.clang"
  },
  "schemaVersion": "3.4.13",
  "updatedAt": "2023-04-14T14:50:35.669Z",
  "devdoc": {
    "methods": {}
  },
  "userdoc": {
    "methods": {}
  }
}